:1000000008C4000024C4000022C4000020C4000072
:100010001EC400001CC400001AC4000018C4000064
:1000200016C4000014C4000012C4000010C4000074
:100030000EC400000CC400009BC7000008C40000F0
:1000400006C4000004C4000023C7000000C4000070
:10005000FEC30000FCC30000FAC30000F8C30000A8
:10006000F6C30000F4C300000C9409040C942704A8
:100070000C9427040C9427040C9427040C94270454
:100080000C9427040C9427040C9427040C94270444
:100090000C9427040C9427040C9427040C94270434
:1000A0000C94B8070C9427040C9427040C94270490
:1000B0000C9448070C9427040C9427040C942704F0
:1000C0000C9427040C9427040C9427040C94270404
:1000D0000000000000000000434F4E534F4C45000D
:1000E0000000281C1D0E1D0E011D711D1B0EB219D6
:1000F0009F1C32190038161C35010000000000005A
:10010000004E554C4C4445560000001D0E1D0E1D62
:100110000E1D0E1D0E1B0E1D0E1D0E1B0E00001BB8
:100120000E0002000000000000004E414D455350FB
:100130004143450060170A191B0E1B0E1B0E1B0EB8
:100140001B0E1B0E1B0E00001B0E006E616D696EF8
:100150006974202864657669636573293A0D0A001D
:1001600007074552524F522047455453544B2025C0
:10017000730A00076E616D6573706163653A206490
:100180006576696365206E616D6520257320746FE7
:100190006F206C6F6E670D0A00076E616D6573707E
:1001A0006163653A2063616E6E6F74206D6F756E6A
:1001B000742025640D0A000707070A0A416C6C20A9
:1001C000757365722070726F6365737365732068F1
:1001D00061766520636F6D706C657465642E0A0AC4
:1001E00000070A1B5B33316DE29693E29692E2962A
:1001F000910A0D1B5B306D57656C636F6D65210A4D
:100200000D4156526E69782076312E300A0D436FBB
:1002100070797269676874205355444F4E45542075
:1002200030342F30312F32360A0A0D000A0D436F59
:100230006D6D616E64733A0A0A0D000001900190C1
:1002400001800080008000C80080002C01800040F8
:10025000008000000100012C0100018000800000EE
:100260001F30002A2E00C32A01E11E00C9310051AF
:100270002F00F63100C43101E72F00522F01C42CAA
:1002800001983000092D00DE2C00BA2F00092C0047
:100290005A320046310205F404D704CB04B704AB4C
:1002A00004780443041A04F103D503B3038403510F
:1002B000032F031903E502B9023C616464723E2016
:1002C0003C7265673E203C636F756E743E203A2039
:1002D000726561642066726F6D20693263206465A7
:1002E00076696365003C616464723E203C726567B8
:1002F0003E203C627974653E205B627974652E2EE7
:100300002E5D203A20777269746520746F206932FF
:100310006320646576696365005B6D6F6E5D20794F
:10032000656172203A2063616C656E646172007071
:100330002076203A207365742074686520706F728F
:1003400074207020776974682076616C75652076FA
:10035000005B4D4D2F44442F59592048483A4D4D8C
:100360003A53535D203A20736574206F722067659D
:100370007420746865206461746520616E64207403
:10038000696D65005B617267202E2E2E5D203A201C
:10039000777269746520617267756D656E7473201C
:1003A000746F207374616E64617264206F75747011
:1003B0007574003A20646973706C6179206375729A
:1003C00072656E742070726F6365737365732074E9
:1003D00061626C65003A20636C65617220746865C7
:1003E000207465726D696E616C2073637265656EF1
:1003F000003A20646973706C617920616D6F756E6D
:1004000074206F66206672656520616E6420757366
:100410006564206D656D6F7279006E203A206B699E
:100420006C6C20287465726D696E61746573292027
:10043000746865206E20284944292070726F6365B6
:100440007373003A20726573657420746865204187
:1004500056526E69782073797374656D2073772EA8
:100460002054484953204953204E4F54206120685E
:1004700077207265736574003A2074656C6C20682F
:100480006F77206C6F6E6720746865204156526EDE
:1004900069782073797374656D2068617320626573
:1004A000656E2072756E6E696E67003A20666F72B7
:1004B00020283B3B293B006E203A20736C65657019
:1004C000206E207365636F6E6473003A20746869F0
:1004D000732068656C70003A204241534943206C98
:1004E000616E677561676520696E746572707265AB
:1004F000746572003A207465787420656469746F5D
:1005000072003A20646973706C6179205352414DD6
:10051000206D656D6F727920636F6E74656E747394
:10052000009F05980592058D0587057F0578057163
:10053000056C05670561055E05590554054F054BBA
:10054000054805450572640077720063616C0067B9
:1005500070696F0064617465006563686F00707333
:1005600000636C6561720066726565006B696C6C36
:10057000007265626F6F7400757074696D650066F6
:100580006F726576657200736C6565700068656C86
:100590007000626173696300656469746F72006DF5
:1005A000656D64756D70001B5B44201B5B440055DA
:1005B0006E696D706C656D656E7465640061766101
:1005C000696C61626C6520564152533A2041202D7E
:1005D000204A0020627974657320667265652E007A
:1005E0000A57656C636F6D6520746F2054696E796E
:1005F000426173696320506C757320696E74657213
:100600007072657465722076302E313500536F72CA
:1006100072792100486F773F00576861743F20006E
:100620004F4B003EBD3CBEBEBD3CBDBC21BD0053DA
:100630005445D00054CF00504545CB4142D34152A0
:100640004541C444524541C4524EC4004C4953D460
:100650004C4F41C44E45D75255CE534156C54E45D9
:1006600058D44C45D449C6474F54CF474F5355C231
:100670005245545552CE5245CD464FD2494E505513
:10068000D45052494ED4504F4BC553544FD0425979
:10069000C546494C45D34D45CDBFA7415752495456
:1006A000C54457524954C544454C41D9454EC4529E
:1006B000534545C443484149CE00FE06FA06F606B6
:1006C000F206EE06EA06E606E206DE06DA06D606DA
:1006D000D206446563004E6F76004F637400536525
:1006E0007000417567004A756C004A756E004D6177
:1006F0007900417072004D617200466562004A6186
:100700006E00205320204D2054752020572054681F
:10071000202046202053002D2D205B534156455D5F
:10072000202620455849543A20707265737320453D
:100730005343207468656E2021202D2D0074657848
:100740007420656469746F72202D20706167653A4A
:10075000000A0909746F74616C0975736564096630
:100760007265650A5352414D204D656D09000A6658
:10077000726565206D656D206C6973743A0A0D6150
:1007800064647209096C656E0A000A6E616D650920
:10079000696409706172656E74097072696F0973BA
:1007A000746174650973746B6C656E0973656D2093
:1007B00077616974730A2D2D0A000A7461626C6591
:1007C000206F662063757272656E742070726F633D
:1007D00065737365730A0053756E4D6F6E5475655E
:1007E000576564546875467269536174004A616E56
:1007F0004665624D61724170724D61794A756E4A0B
:10080000756C4175675365704F63744E6F764465C0
:10081000630011241FBECFEFD8E0DEBFCDBF12E0D2
:10082000A0E0B1E0E6E8FFE602C005900D92A23339
:10083000B107D9F725E0A2E3B2E001C01D92AE33C3
:10084000B207E1F70C946C0C0E943D1F28C6D8CB70
:10085000FF93EF93FC0100820FB6F89404A211827B
:100860002282338244825582668277828086918694
:10087000A286B386C486D586E686F786008B118B62
:10088000228B338B448B558B668B778B808F918F2C
:10089000A28FB38FC48FD58F0F90068E0F90078EC7
:1008A0000DB600A20EB601A2FB0100A00DBE01A074
:1008B0000EBE078C0F92068C0F92D58DC48DB38D12
:1008C000A28D918D808D7789668955894489338978
:1008D000228911890089F784E684D584C484B3848D
:1008E000A2849184808477806680558044803380A0
:1008F0002280118004A00FBE0080EF91FF91089527
:10090000B0E0A0E0E6E8F4E00C9429338C01EB01C0
:10091000FC018481682F660F680F8581582F550F61
:10092000580F9E0140E0862F840F90E0A0E089528E
:10093000984FAF4FFC018491A7FD8081F90181930D
:100940009F01852F840F90E0A0E08351984FAF4F17
:10095000FC018491A7FD8081F90183834F5F4330BF
:1009600011F780E28F838B83BE01685F7F4FF801B0
:10097000838140E2082E000C990BD0D0BE01655F48
:100980007F4FF80182814AE3082E000C990BC6D0F4
:10099000BE01625F7F4FF80181814AE3082E000C9F
:1009A000990BBCD0BE016F5E7F4FF801808140E2A1
:1009B000082E000C990BB2D0F8018681978164E66D
:1009C00070E08459984F0E94E0326B017C01BE01B7
:1009D0006C5E7F4F40E2C601A1D0BE016A5E7F4FD0
:1009E00040E0C7019BD0CDB7DEB7E8E00C944533BB
:1009F000A4E0B0E0EEEFF4E00C9429336C017B014D
:100A0000E0913C05F0913D050FEF1FEF309721F08D
:100A100066E375E009958C01F60180819181A281E0
:100A2000B38140913605509137056091380570913A
:100A30003905840F951FA61FB71F101611067CF0ED
:100A400089839A83AB83BC83B701CE01019678D0AA
:100A5000F701138702872496E8E00C944533A80138
:100A6000012E000C660B770B840F951FA61FB71F76
:100A7000E7CFA4E0B0E0EFE3F5E00C942D338C0178
:100A800023D169837A838B839C83F8018285938544
:100A900097FF0EC0E0913C05F0913D05309741F085
:100AA00066E375E0CE0101960995F8019387828788
:100AB000F801828593851816190684F4092E000C16
:100AC000AA0BBB0B49815A816B817C81481B590B56
:100AD0006A0B7B0B49835A836B837C8389819A8160
:100AE000AB81BC8140913605509137056091380546
:100AF00070913905841B950BA60BB70B89839A83DC
:100B0000AB83BC83B801CE01019672DF69817A8123
:100B10008B819C812496E4E00C9449331F93CF93FE
:100B2000DF93EB01142F6AE070E00E94E032605D19
:100B30006883805D89831A83DF91CF911F91089527
:100B4000A8E0B0E0E6EAF5E00C9429338B01FC0163
:100B5000608171818281938120E831E541E050E03C
:100B60000E94563369017A012CE330E040E050E006
:100B70000E94F33229833A834B835C8389819A8173
:100B8000AB81BC81F80160836CE370E00E94E032CD
:100B9000DC01F801A1836283C601069667E070E07C
:100BA0000E94CC3284832DEA3EE840E050E0C70149
:100BB000B6010E94F33229833A836D837E838F834B
:100BC000988789819A8124E6289F6001299FD00C0B
:100BD00011246D817E818F81988525EB35E040E081
:100BE00050E00E94F33229833A836D837E83E9804B
:100BF000FA80EE0CFF1CEE0CFF1CEC0CFD1C8D8132
:100C00009E81F5E6EF16F104A0F1019621E030E0B7
:100C1000A90144595E4F4817590760F46DE671E029
:100C2000821B930B0E94E032DC01E60EF71ECD0121
:100C300030E020E044E6E40EF11CF801F782E682A1
:100C400091878087255C3F4F82179307E0F46FE11F
:100C500070E00E94E032DC01F8016583A383F801B3
:100C60001386128683818F5F83832896E8E00C9435
:100C7000453351E040E024E6E216F10409F450E087
:100C8000252F342FC5CF69E970E0821B930B0E949A
:100C9000E032DC01262F220F220FF22EF60E6DE33A
:100CA00070E0CD010E94E032DC01E62EEE0C6FE137
:100CB00070E0CD010E94E032DC0122E0260F2F0D12
:100CC0002E0DF8012583CACF8F929F92AF92BF92CB
:100CD000CF92DF92EF92FF92CF93DF93EC01EE8100
:100CE000FF817F0124E6E21AF108D12CC12CB1F07A
:100CF000CF01855691096C0197FF03C023E0C20E16
:100D0000D11CD594C794D594C7946CE97FEF0E9409
:100D1000E032C60ED71E8FEFC81AD80A2DE631E092
:100D2000D7010E94B7374601DD0CAA08BB08860E22
:100D3000971EA81EB91E8B81082E000C990B7C01F2
:100D400021E0E21AF1082D8122300CF049C0222363
:100D500021F07C012EE1E20EF11C6701FF0CEE0890
:100D6000FF08C80CD91CEA1CFB1CAA810A2E000C27
:100D7000BB0B20E13EE00E94B7374B015C01A9812B
:100D80000A2E000CBB0B2CE330E00E94B737AB01FE
:100D9000BC01480D591D6A1D7B1D8881082E000C61
:100DA000990BAA0BBB0B4C015D01840E951EA61E70
:100DB000B71EA701960160E871E581E090E00E940E
:100DC000BD32680D791D8A1D9B1DDF91CF91FF906B
:100DD000EF90DF90CF90BF90AF909F908F9008954D
:100DE000CF018459984F2BD0C82ED12C8BE3C80E3D
:100DF000D11CCE0CDF1C8D81082E000C990B0297A4
:100E0000853091051CF029E9C20ED11C65E070E027
:100E10000E94E0329C0197FF02C02F5F3F4F359543
:100E200027959DE3929F7001939FF00C1124EC0C89
:100E3000FD1C80FF92CF8FE1E80EF11C8ECF9C014C
:100E400023703327232B59F464E670E00E94E032CC
:100E5000892B39F46370772781E0672B19F080E0E4
:100E6000089581E00895E0910401F0910501158253
:100E700088E0848386E0828388E981830895E09115
:100E80000401F0910501908195FFFDCF86830895BF
:100E90001F920F920FB60F9211242F933F934F93EF
:100EA0005F936F937F938F939F93AF93BF93EF93D2
:100EB000FF934091C60040934E0230E020E061E095
:100EC00070E080E090E00E94161CFF91EF91BF91CE
:100ED000AF919F918F917F916F915F914F913F91D2
:100EE0002F910F900FBE0F901F901895A4E0B0E0C7
:100EF000ECE7F7E00C942F33AB01BC0119821A82A6
:100F00001B821C8219821A821B821C8289819A810F
:100F1000AB81BC8184179507A607B70720F02496FC
:100F2000E2E00C944B33000089819A81AB81BC8153
:100F30000196A11DB11D89839A83AB83BC83E6CF43
:100F400080E284B92D9A60E47DE083E090E0CEDF1A
:100F50002D9860E47DE083E090E0C8CF10927702A6
:100F6000109278021092790210927A0281E008952C
:100F70001F920F920FB60F9211242F933F934F930E
:100F80005F936F937F938F939F93AF93BF93EF93F1
:100F9000FF938091810290918202A0918302B0918F
:100FA00084020196A11DB11D80938102909382025B
:100FB000A0938302B0938402883E9340A105B105BB
:100FC000D8F08091850290918602A0918702B0911D
:100FD00088020196A11DB11D80938502909386021F
:100FE000A0938702B093880210928102109282022D
:100FF000109283021092840280917B0290917C0275
:1010000026E0289FF001299FF00D1124ED5DFB4F94
:10101000828193818430910584F4289FF001299F77
:10102000F00D1124ED5DFB4F80819181019791833B
:101030008083892B11F40E94C41480917D029091C9
:101040007E02A0917F02B09180020197A109B109AF
:10105000C9F080937D0290937E02A0937F02B093AB
:101060008002FF91EF91BF91AF919F918F917F91FE
:101070006F915F914F913F912F910F900FBE0F9005
:101080001F90189581E090E0A0E0B0E080937D0291
:1010900090937E02A0937F02B09380020E94481139
:1010A000E0CF13D790937C0280937B0281E090E0A5
:1010B000A0E0B0E080937D0290937E02A0937F0237
:1010C000B0938002109285021092860210928702DD
:1010D0001092880210928102109282021092830272
:1010E0001092840285B5836085BD84B5826084BD1D
:1010F00089EF87BDEEE6F0E080818260808308950D
:10110000CF92DF92EF92FF92CF93DF936B017C013E
:101110008AD5D82F83E0C816D104E104F10458F031
:101120008D2F84D5CFEF8C2FDF91CF91FF90EF9053
:10113000DF90CF90089529E22C9DC0012D9D900D48
:10114000112480539F4FFC0176960590F491E02D79
:101150000995C82F8D2F6AD5E6CF4F925F926F9277
:101160007F92AF92BF92CF92DF92EF92FF920F9356
:101170001F93CF93DF93CDB7DEB729970FB6F894BF
:10118000DEBF0FBECDBF2B013C0129833A834B83C9
:101190005C83ED82FE820F8318877601650143D55B
:1011A000898783E04816510461047104D0F0898571
:1011B0003DD58FEF8983898129960FB6F894DEBFDC
:1011C0000FBECDBFDF91CF911F910F91FF90EF9098
:1011D000DF90CF90BF90AF907F906F905F904F90D7
:1011E000089529E2249DC001259D900D112480536E
:1011F0009F4FFC01B2960590F491E02D0D811E8168
:101200002F81388549815A816B817C810995898339
:1012100089850CD5D0CFA7E0B0E0E1E1F9E00C94EE
:101220001F332C8D29838D8CEE8CFF8C1AA10BA182
:10123000FAD4982EC7018034910514F480E490E02C
:1012400003968C7F2C01990F66087708C301B201C1
:1012500093D21C010196B1F1609132027091330278
:101260008091340290913502B12CA12C24E030E021
:1012700040E050E00E94F3326B017C016C83DD8220
:101280008E83FF826F5F7F4F8F4F9F4F2BE52C9D8B
:10129000F0012D9DF00D1124FB83EA83E357FD4FF0
:1012A00020813181232B21F5609332027093330228
:1012B00080933402909335023FEFC316D306E306C2
:1012C000F30639F580E691E00E943F15892DAED4F2
:1012D0003FEF3C834FEF4D838FEF8E839FEF9F83D4
:1012E0006C817D818E819F812796E2E10C943B3356
:1012F0004FEFA41AB40AE4E0AE16B10409F0B6CF79
:1013000060933202709333028093340290933502DB
:10131000D9CF28A139A112161306A4F68091F9039A
:101320009091FA03A091FB03B091FC030196A11DDB
:10133000B11D8093F9039093FA03A093FB03B0933C
:10134000FC0385E090E09183808328A139A1338359
:10135000228331AE20AE42AE53AE64AE75AEDF0135
:10136000AB5BBF4F1C92A12FB02F8F0190E080E0AC
:101370002D91F801E80FF91F26AF222321F00196E5
:1013800087309105A9F72BE52C9DC0012D9D900D6F
:101390001124FC01E357FD4F5F01EA5BFF4F8FEF24
:1013A0009FEF91838083DFD1F501E85BFF4F60837E
:1013B00071838283938338961082319611821082D2
:1013C0003296118210823296118210828AEAF101DD
:1013D00080838CA19DA1F50193A782A730E020E036
:1013E000F801E20FF31F14822F5F3F4F26323105C1
:1013F000B9F72BE52C9DF0012D9DF00D1124E3573D
:10140000FD4F298124AB85AA26A387A220E820A727
:10141000DE01969630E020E0281739077CF1FC01C8
:101420007696EE0FFF1F4BE54C9D90014D9D300DC4
:101430001124E20FF31FE357FD4F11821082F901CF
:10144000E357FD4F848F958F8A819B8187549D4FF1
:10145000828F938F88E794E1D10111978C93119734
:101460009C93119739813C9311978C9245E0241AF3
:10147000310824A235A2892DD9D332CF4D915D9167
:10148000F901EE0FFF1FE00FF11F55A744A72F5FD3
:101490003F4FC2CF61E070E080E090E0089563D1FB
:1014A000CEC3B0E0A0E0E7E5FAE00C942533EC0110
:1014B0006A017B01B8D3C114D104E104F10471F0D5
:1014C00020911F0430912004C217D30738F02091D7
:1014D0002104309122042C173D0738F4A7D38FEF55
:1014E000CDB7DEB7ECE00C94413397E0C90ED11CC8
:1014F000E11CF11C98EFC922A601DD0C660B770BED
:10150000A0911904B0911A04E9E1F4E0109709F4EC
:10151000A1C0AC17BD0708F479C000E010E0980145
:1015200094E0E931F90709F476C0C280D380E48001
:10153000F5808F010F2E000C220B330B0C0D1D1D9F
:101540002E1D3F1D6E010D2E000CEE08FF08C0166B
:10155000D106E206F30610F2109709F05CC0C090C5
:101560001B04D0901C04E0901D04F0901E04C40ED7
:10157000D51EE61EF71EC0921B04D0921C04E092FA
:101580001D04F0921E046E010D2E000CEE08FF08E3
:10159000C016D106E206F30609F052C0028113819B
:1015A00024813581400F511F621F731F4283538373
:1015B00064837583C280D380E480F5808F010F2E11
:1015C000000C220B330B0C0D1D1D2E1D3F1DAD01FC
:1015D0000B2E000C660B770B041715072607370731
:1015E00091F412964D915D916D917C9115974C0DF2
:1015F0005D1D6E1D7F1D42835383648375832D9112
:101600003C913183208312D381E06ACFFD010D909C
:10161000BC91A02D7BCF6E010D2E000CEE08FF08B3
:10162000C40ED51EE61EF71E4D010B2E000CAA0897
:10163000BB088C149D04AE04BF0408F090CF4ECFBD
:10164000B983A8834A835B836C837D83D183C08302
:10165000FE01B0CF94E0E931F90709F066CF00E070
:1016600010E098017CCFCF92DF92EF92FF92CF9360
:10167000DF936B017C01D7D2D82F83E0C816D10449
:10168000E104F10458F08D2FD1D2CFEF8C2FDF91F0
:10169000CF91FF90EF90DF90CF90089529E22C9D9D
:1016A000C0012D9D900D112480539F4FFC017E960B
:1016B0000590F491E02D0995C82F8D2FB7D2E6CF74
:1016C00026E0289FF001299FF00D1124ED5DFB4FCE
:1016D00042815381443051051CF5BA01052E000C9E
:1016E000880B990B249FF001259FF00D1124ED5DCF
:1016F000FB4FA281B38144815581249FF001259F36
:10170000F00D1124ED5DFB4FB383A2832A9FF001FE
:101710002B9FF00D1124ED5DFB4F558344830895FD
:101720006FEF7FEFCB01089546E0469FF001479FA2
:10173000F00D1124ED5DFB4FA281B3812481358131
:10174000429FF001439FF00D1124ED5DFB4FB383E9
:10175000A2834A9FF0014B9FF00D1124ED5DFB4FDA
:101760003583248308956091890270918A02809163
:101770008B0290918C020895B0E0A0E0E2ECFBE0D7
:101780000C9429336B017C014ED2C114D104E104C5
:10179000F10441F44BD28FEF9FEFCDB7DEB7E8E015
:1017A0000C94453397E0C90ED11CE11CF11C98EF55
:1017B000C9220D2C000CEE08FF08E0911904F091ED
:1017C0001A04B0E0A0E0D0E0C0E029E134E03097B6
:1017D00091F52097F9F24A815B816C817D814C15EE
:1017E0005D056E057F05C9F5288139812D933C93F0
:1017F00040911B0450911C0460911D0470911E04C3
:101800004C195D096E097F0940931B0450931C0419
:1018100060931D0470931E0409D284E0C81AD10895
:10182000E108F108CE01DD0FAA0BBB0B8C0D9D1D4D
:10183000AE1DBF1DB2CF42815381648175814C15AD
:101840005D056E057F0538F49D01D9019F0101906A
:10185000F081E02DBCCFEF01F8CF4C195D096E0986
:101860007F094A835B836C837D838E01DD0F220BAE
:10187000330B400F511F621F731FEA01B9CFCF9284
:10188000DF92EF92FF92CF93DF936B017C01CBD17C
:10189000D82F83E0C816D104E104F10458F08D2F4D
:1018A000C5D1CFEF8C2FDF91CF91FF90EF90DF90DC
:1018B000CF90089529E22C9DC0012D9D900D1124FB
:1018C00080539F4FFC0172960590F491E02D09958D
:1018D000C82F8D2FABD1E6CF63D389E191E09F93E1
:1018E0008F9393D281EE91E00E943F15BDD210926A
:1018F000F9031092FA031092FB031092FC0310926A
:101900008504109286041092870410928804EDE8F2
:10191000F2E00F900F901182108216AE11AE10AE51
:1019200013821282E55AFF4F83E0E93FF80799F7E7
:10193000CDEFD3E0188219821A821B821C82C5D295
:101940009E838D83279694E0C931D90799F706DBEA
:10195000BCD2909384048093830460E070E0CB0158
:101960008EDF61E070E080E090E089DF62E070E0AF
:1019700080E090E084DF95DBE0911904F0911A0497
:1019800080E090E0DC01309709F045C0BF93AF9351
:101990009F938F9387E291E09F938F9336D21F920C
:1019A0001F921F921F928DE391E09F938F931F923E
:1019B0008AE08F931F9280E48F931F921F922BDCFB
:1019C0002BE5269FF001279FF00D1124E357FD4FD3
:1019D00081E090E0918380832BD11F921F921F9210
:1019E0001F9283E491E09F938F931F9284E18F93E2
:1019F00081E08F9388EB8F938DE39FE19F938F938B
:101A00000ADC17D58DB79EB74E960FB6F8949EBFD9
:101A10000FBE8DBFFFCF4281538164817581840FDA
:101A2000951FA61FB71F0190F081E02DACCF0F933B
:101A30001F93CF93DF93FA0134973B9708F057C079
:101A4000643071058105910508F051C03BE5369F72
:101A5000F001379FF00D1124E357FD4F0190F08105
:101A6000E02DEF2B09F443C036E0349FF001359FA1
:101A7000F00D1124ED5DFB4FC281D381022E000CCD
:101A8000330B46E04C9FF0014D9FF00D1124ED5DAE
:101A9000FB4FA081B181A217B30730F504811581F6
:101AA000469FD001479FB00D1124AD5DBB4F1396EB
:101AB000DC93CE93129715961C930E9314972D9347
:101AC0003C93409FD001419FB00D1124AD5DBB4FB1
:101AD00013967C936E9312977583648381E0DF91F4
:101AE000CF911F910F910895C281D381CBCF8FEFFA
:101AF000F6CF4F925F926F927F928F929F92AF92AA
:101B0000BF92CF92DF92EF92FF926B017C01CA01EC
:101B100004970B9708F085C084E0C816D104E1044F
:101B2000F10408F07EC08BE5869FF001879FF00DE1
:101B30001124E357FD4F80819181892B09F471C0F5
:101B40004A01052E000CAA08BB0886E0849FF0011C
:101B5000859FF00D1124ED5DFB4F82819381092E4D
:101B6000000CAA0BBB0B4F5F5F4F2A01550F660895
:101B7000770866E0481659066A067B06A1F566E016
:101B80006C9DF0016D9DF00D1124ED5DFB4F938375
:101B900082839582848231832083689DA001699D20
:101BA000500D11244D5D5B4FFA01D382C282689FB4
:101BB000F001699FF00D1124ED5DFB4FD582C482C9
:101BC000481659066A067B0629F581E0FF90EF90DA
:101BD000DF90CF90BF90AF909F908F907F906F904D
:101BE0005F904F900895689FF001699FF00D112458
:101BF000ED5DFB4F408151812417350708F4BFCFBD
:101C0000241B350B428153814C01CA01550FAA0B8D
:101C1000BB0BB0CF80819181821B930B918380831A
:101C2000D4CF8FEFD3CF8FB7F89408958FBF089597
:101C300078940895FFCF8FEF089581E00895CF92B3
:101C4000DF92EF92FF921F93CF93DF936B017C01A2
:101C5000EADF182F84E0C816D104E104F10408F08B
:101C600090C08BE58C9DF0018D9DF00D1124E35704
:101C7000FD4F80819181892B09F483C0C114D10467
:101C8000E104F10409F47DC08091F9039091FA0315
:101C9000A091FB03B091FC030197A109B1098093C6
:101CA000F9039093FA03A093FB03B093FC0302970C
:101CB000A105B1050CF494D68BE58C9DE0018D9DBA
:101CC000D00D1124C357DD4FFE01E85BFF4F60814B
:101CD000718182819381A701960195D4FE01EF5A0B
:101CE000FF4F60817181072E000C880B990B08DA79
:101CF000FE01ED5AFF4F60817181072E000C880BA9
:101D0000990BFED9FE01EB5AFF4F60817181072EBE
:101D1000000C880B990BF4D94AAD5BAD6CAD7DAD71
:101D2000495F5F4F6F4F7F4F487F052E000C660B5A
:101D3000770B88AD99AD092E000CAA0BBB0B04964E
:101D4000A11DB11D841B950BA60BB70BAADB8881C7
:101D500099818430910529F1F8F48130910529F1B8
:101D6000029709F43DC08BE58C9DF0018D9DF00D2F
:101D70001124E357FD4F11821082812F57DF81E03C
:101D800003C0812F53DF8FEFDF91CF911F91FF9021
:101D9000EF90DF90CF9008958630910551F007972E
:101DA00011F7C701B60155D5DECF1982188270D25E
:101DB000F8CFCA5BDF4F8881998127E0289FF00127
:101DC000299FF00D1124E350FC4F81819281A38162
:101DD000B4810196A11DB11D81839283A383B48335
:101DE000C701B601A1DCBFCFCF93DF93C82F1BDFA4
:101DF000D82FCA3011F48DE042D88C2F40D88D2FC7
:101E000015DF81E0DF91CF910895A1E5B0E0EBE02F
:101E1000FFE00C942B338E01065A1F4FF801E1901E
:101E2000F1908F0121E530E040E050E070E060E0AB
:101E3000CE0101960E940D359801A70160E570E082
:101E4000CE0101960E941C358E010F5F1F4FF801D5
:101E500081918F01811106C081E0CF5ADF4FE6E00A
:101E60000C944733C1DFF3CFCF93DF938EE395E03C
:101E7000A0E8BB270196A11DB11DEC0190932004A1
:101E800080931F042FEF38E0309322042093210425
:101E9000E9E1F4E09183808319821882092E000C15
:101EA000AA0BBB0B4FEF58E060E070E0481B590BEA
:101EB0006A0B7B0B4A835B836C837D8342835383F2
:101EC00064837583DF91CF9108958091060190918D
:101ED00007018031910544F59C012E5F3F4F3093FF
:101EE000070120930601AC014F5F5F4F66E0689FDA
:101EF000F001699FF00D1124ED5DFB4F5383428388
:101F00002FEF3FEF3583248331832083649FF001DB
:101F1000659FF00D1124ED5DFB4F33832283958384
:101F200084831182108208958FEF9FEF08958F921E
:101F30009F92AF92BF92EF92FF920F931F93CF9316
:101F4000DF934B015C018A0179016DDED82F83E0BC
:101F500088169104A104B10478F08D2F67DECFEFCD
:101F60008C2FDF91CF911F910F91FF90EF90BF9039
:101F7000AF909F908F90089529E2289DC001299DE0
:101F8000900D112480539F4FFC0174960590F4919D
:101F9000E02DA701B8010995C82F8D2F47DEE0CFAE
:101FA000F8940E94A0070E94A0070E94330772CAFB
:101FB000CF92DF92EF92FF92CF93DF936B017C0180
:101FC000C42F31DED82F83E0C816D104E104F10418
:101FD00058F08D2F2BDECFEF8C2FDF91CF91FF901C
:101FE000EF90DF90CF90089529E22C9DC0012D9DA8
:101FF000900D112480539F4FFC01B0960590F491F1
:10200000E02D6C2F0995C82F8D2F10DEE5CFCF93D3
:10201000DF939A01245031092B303105E0F564300B
:10202000710581059105B8F52BE5269FF001279FE5
:10203000F00D1124E357FD4F20813181232B59F1FD
:102040004F5F5F4F26E0249FF001259FF00D112484
:10205000ED5DFB4FC481D581269FD001279FB00D38
:102060001124AD5DBB4F13965C934E93129715965A
:10207000DC93CE9314972C9FD0012D9FB00D11248B
:10208000AD5DBB4F13967C936E93129775836483FB
:10209000DF91CF9108956FEF7FEFCB01F9CFCF9311
:1020A0009C01245031092B303105E8F4C6E0C89F6B
:1020B000F001C99FF00D1124ED5DFB4F22813381AA
:1020C0002430310584F4FCDAC69FF001C79FF00D7F
:1020D0001124ED5DFB4F2FEF3FEF358324833383D6
:1020E0002283CF9108956FEF7FEFCB01FACF4F920C
:1020F0005F926F927F928F929F92AF92BF92EF9278
:10210000FF920F931F93CF93DF932B013C017A0132
:10211000590189DDD82F83E0481651046104710408
:1021200098F08D2F83DDCFEF8C2FDF91CF911F9112
:102130000F91FF90EF90BF90AF909F908F907F9006
:102140006F905F904F90089529E2249DC001259DD6
:10215000900D112480539F4FFC0178960590F491C7
:10216000E02DA5019801B7010995C82F8D2F5EDDDF
:10217000DBCF6430710581059105C8F42BE5269FFE
:10218000F001279FF00D1124E357FD4F208131818D
:10219000232B69F022E030E03183208340918304D7
:1021A00050918404228143DC73D081E008958FEF45
:1021B0000895CF92DF92EF92FF92CF9334DDC82F34
:1021C000C0908902D0908A02E0908B02F0908C023D
:1021D0008BE58C9DF0018D9DF00D1124E357FD4F93
:1021E000DF01A05BBF4F8C91811105C083E090E0BF
:1021F000918380834DD02BE52C9DC0012D9D900DAA
:10220000112483579D4FFC01E45BFF4FC080D180B8
:10221000E280F380805B9F4FFC0110828C2F06DDF3
:10222000C701B601CF91FF90EF90DF90CF90089556
:10223000CF92DF92EF92FF92F6DC409189025091AB
:102240008A0260918B0270918C029BE5949F9001B1
:10225000959F300D112423573D4FF901E05BFF4F4F
:102260009081913081F4245B3F4FD901CD90DD9076
:10227000ED90FC901082DADCC701B601FF90EF9080
:10228000DF90CF900895C12CD12C7601C394F3CF69
:10229000CF92DF92EF92FF92809185049091860415
:1022A000A0918704B0918804181619061A061B0617
:1022B00044F481E080938904FF90EF90DF90CF9009
:1022C0000895C0908902D0908A02E0908B02F0902D
:1022D0008C028BE58C9DF0018D9DF00D1124E35750
:1022E000FD4F80819181019721F5409183045091A8
:1022F00084042281338186E0849FD001859FB00DC4
:102300001124AD5DBB4F12966D917C91869FD001DB
:10231000879FB00D1124AD5DBB4F8D919C918217AD
:10232000930750F282E090E091838083C701B60169
:102330007EDB8091830490918404B1DE60938902F6
:1023400070938A0280938B0290938C022BE5269FD8
:10235000D001279FB00D1124FD01E357FD4F41E04F
:1023600050E05183408341E050E060E070E04093F2
:102370007D0250937E0260937F0270938002BD01C4
:102380006F567D4F2C9DC0012D9D900D11248F56B1
:102390009D4F0E94280490CF613071058105910501
:1023A00039F0623071058105910509F18FEF0895CB
:1023B0008091850490918604A0918704B09188044F
:1023C000AC01BD014F5F5F4F6F4F7F4F409385045E
:1023D000509386046093870470938804892B8A2B1A
:1023E0008B2B11F081E0089510928904FBCF80912E
:1023F000850490918604A0918704B09188041816F2
:1024000019061A061B0694F60197A109B1098093D3
:10241000850490938604A0938704B0938804892B45
:102420008A2B8B2BF9F6809189048823D9F230DF2F
:10243000D9CFCF92DF92EF92FF921F93CF93DF938A
:102440006B017C01F0DB182F84E0C816D104E10495
:10245000F10460F48BE58C9DF0018D9DF00D11244D
:10246000E357FD4F80819181009769F4812FDEDB76
:10247000CFEFDFEFCE01DF91CF911F91FF90EF9073
:10248000DF90CF900895059789F7C281D381C70166
:10249000B6016FDE812FCADBEDCFCF93DF93EC0166
:1024A000C2DBC430D10558F497E09C9FF0019D9F9A
:1024B000F00D1124E350FC4F9081911105C0B6DB63
:1024C0008FEFDF91CF910895C181B0DB8C2FF9CFD1
:1024D000CF92DF92EF92FF92CF93DF936B017C015B
:1024E000A2DBF7FC22C0C0913602D091370250E047
:1024F00040E097E09E012F5F3F4F2430310514F0FC
:1025000030E020E09C9FF0019D9FF00D1124E350EE
:10251000FC4F6081611116C0309337022093360260
:1025200091E09083CF3FDC07B9F480DBCFEFDFEFA2
:10253000CE01DF91CF91FF90EF90DF90CF90089583
:10254000E901D8CF4F5F5F4F44305105C9F7309351
:10255000370220933602E9CFC182D282E382F4822D
:1025600065DBE6CFAF92BF92CF92DF92EF92FF9200
:102570001F93CF93DF93EC016A017B0154DB182F8B
:10258000F7FC0EC0C430D10558F487E08C9FF001F1
:102590008D9FF00D1124E350FC4F808181110DC0FF
:1025A000812F44DB8FEFDF91CF911F91FF90EF9050
:1025B000DF90CF90BF90AF900895A580B68061E086
:1025C00070E080E090E0E8DEC5017AD86F3F2FEF41
:1025D000720782079207A9F487E08C9FF0018D9F14
:1025E000F00D1124E350FC4FC182D282E382F482C9
:1025F00062E070E080E090E0CFDE812F17DB81E0C9
:10260000D2CFB7DDE1CF8F929F92AF92BF92CF92A0
:10261000DF92EF92FF92CF934B015C0169017A0147
:1026200002DBC82F84E088169104A104B10460F491
:102630008BE5889DF001899DF00D1124E357FD4F36
:1026400080819181009769F48C2FF0DA8FEFCF9120
:10265000FF90EF90DF90CF90BF90AF909F908F90C2
:102660000895DF01A05BBF4F2C912111EDCFE45BFA
:10267000FF4FC082D182E282F38221E02C9383302B
:10268000910539F4C501B40174DD8C2FCFDA81E0F6
:10269000DECF0797D1F7C501B401DBD0F3CF0F939D
:1026A0001F93CF938C01BFDAC82F0430110538F087
:1026B0008C2FBCDA8FEFCF911F910F91089587E097
:1026C000809FF001819FF00D1124E350FC4F808129
:1026D000882371F381819281A381B481AC01BD0112
:1026E0004F5F5F4F6F4F7F4F41835283638374838C
:1026F000B7FF04C085819681D2DC3BDD8C2F96DA52
:1027000081E0D9CFB0E0A0E0E8E8F3E10C94283311
:102710008C016A017B0187DAB82E0430110510F4B0
:10272000F7FE08C08B2D82DA8FEFCDB7DEB7E9E078
:102730000C94443387E0809FE001819FD00D1124E9
:10274000C350DC4F8881882369F361E070E080E04A
:1027500090E022DE8E010F5F1F4F2596C114D10439
:10276000E104F10449F462E070E080E090E014DEFE
:102770008B2D5CDA81E0D9CFF80180819181A28133
:10278000B381AC01BD014F5F5F4F6F4F7F4F4083FF
:10279000518362837383B7FF04C0888199817FDC92
:1027A000E8DCF1E0CF1AD108E108F108D7CFCF92E9
:1027B000DF92EF92FF92CF9397FD23C06B017C01D4
:1027C000C114D104E104F10441F40ED181E0CF91B0
:1027D000FF90EF90DF90CF90089525DAC82F4091B9
:1027E0007B0250917C026091890270918A028091F3
:1027F0008B0290918C0296017CD98F3F21F48C2F13
:1028000015DA8FEFE4CF8091890290918A022BE54F
:10281000289FF001299FF00D1124E357FD4F84E01C
:1028200090E09183808334DD8C2F00DACFCF6C3938
:1028300024EC720720E28207910548F49B01AC0169
:10284000A8EEB3E00E941533B2DF81E008958FEF68
:102850000895CF92DF92EF92FF92CF936B017C01AC
:10286000E2D9C82F84E0C816D104E104F10460F471
:102870008BE58C9DF0018D9DF00D1124E357FD4FEC
:1028800080819181009749F48C2FD0D98FEFCF911F
:10289000FF90EF90DF90CF9008958430910511F074
:1028A000079791F726E02C9DD0012D9DB00D1124A6
:1028B000AD5DBB4F12968D919C911397843091051D
:1028C0007CF4289FF001299FF00D1124ED5DFB4F52
:1028D000808191812D913C91820F931F9183808300
:1028E000C701B6010E94940B8C2FA0D981E0CFCFF5
:1028F0000E94B30BA4C91F93CF93DF93EC0193D92C
:10290000182FC430D10538F0812F90D98FEFDF9187
:10291000CF911F91089587E08C9FF0018D9FF00D5E
:102920001124E350FC4F8081882371F381819281CF
:10293000A381B4810197A109B10981839283A38303
:10294000B483B7FF1DC06091890270918A028091A3
:102950008B0290918C022BE5269FD001279FB00D12
:102960001124A357BD4F26E030E011963C932E93DF
:10297000AA5BBF4FCD93DC934581568148DB88DC51
:10298000812F54D981E0C3CFCF9361E070E080E024
:1029900090E002DDC6E080917B0290917C02C89FAE
:1029A000F001C99FF00D1124ED5DFB4F22813381B1
:1029B000243031055CF4C29FF001C39FF00D112457
:1029C000ED5DFB4F20813181232B39F062E070E017
:1029D00080E090E0E1DCCF91089561DBCADBDBCFE2
:1029E00087EB91E04CD026C9CF931DD9C82F50DC7E
:1029F0008C2F1CD981E0CF910895823621F415B82F
:102A00008FEF84B965B90895823611F485B10895C0
:102A10008FEF08951F93CF93DF93162F282F082E43
:102A2000000C330B8930A4F4C1E001C0CC0F8A95AF
:102A3000EAF7D4E68D2FE8DF1123F1F0C82B6C2FD5
:102A40008D2FDBDF90E080E0DF91CF911F91089523
:102A50008E304CF428503109C1E001C0CC0F2A95CA
:102A6000EAF7D2E6E7CF2D503109C1E001C0CC0F23
:102A70002A95EAF7D3E6DECFC095C823E0CFEF92E0
:102A8000FF920F931F93CF93DF938C010E94E73443
:102A90007C01D0E0C0E0CE15DF0529F4CDB7DEB76C
:102AA000E6E00C944733F801EC0FFD1F84910E947F
:102AB0003F072196F0CF0F931F9300918902109149
:102AC0008A0220918B0230918C026BE5609FA001FD
:102AD000619F500D1124FA01EE52FD4F1082DC016E
:102AE00030E020E09D91F901E40FF51FE357FD4F21
:102AF00096AF992329F02F5F3F4F2730310591F78B
:102B00001F910F910895A0E1B0E0E9E8F5E10C9480
:102B10002D338C0180918A0490918B04A0918C04B8
:102B2000B0918D0440918502509186026091870298
:102B300070918802840F951FA61FB71F8D879E87EF
:102B4000AF87B88BBE016F5F7F4FCE010D960E949D
:102B5000F804B801CE0101960E9480046096E4E07A
:102B60000C944933AFE0B0E0E8EBF5E10C94273387
:102B70008C011F86FC0180818D8781818E87CE012B
:102B80000D960E94C234D82EF80183818D878481EE
:102B90008E87CE010D960E94C234C82EF801868120
:102BA0008D8787818E87CE010D960E94C2347C016D
:102BB000F80181858D8782858E87CE010D960E94D2
:102BC000C234B82EF80184858D8785858E87CE0125
:102BD0000D960E94C234A82EF80187858D878089C2
:102BE0008E87CE010D960E94C2348983AA82BB8251
:102BF000DA94DE82CC82F4E6EF0EF11CF886EF82E6
:102C00001C861B86CE0101960E9439050091850223
:102C1000109186022091870230918802601B710B0F
:102C2000820B930B60938A0470938B0480938C04C3
:102C300090938D0490E080E02F96EAE00C9443336B
:102C4000A1E5B0E0E6E2F6E10C94293321E530E0BD
:102C500040E050E070E060E0CE0101960E940D354A
:102C60009E01205A3F4FA0964EAD5FADA09760E504
:102C700070E0CE0101960E941C358E010F5F1F4F40
:102C80006E96CEACDFAC6E970D2C000CEE08FF08F4
:102C9000F80141918F01411107C090E080E0CF5AC7
:102CA000DF4FE8E00C944533C701B60181D9F0CF7E
:102CB000A1E5B0E0EEE5F6E10C942C339E01275A35
:102CC0003F4FF901419151919F0161E570E0CE01C3
:102CD00001960E941C358E010F5F1F4F8BE5F82E69
:102CE000F80181918F01811107C090E080E0CF5AF7
:102CF000DF4FE5E00C9448338A3099F480918902E3
:102D000090918A02F89EF001F99EF00D1124E05294
:102D1000FD4F60817181072E000C880B990B4DE0EF
:102D200047D98091890290918A02F89EF001F99E1C
:102D3000F00D1124E052FD4F60817181072E000CCF
:102D4000880B990BF8013197408132D9C9CF0F9385
:102D50001F938A019B01FC0160E070E0CB016017CA
:102D600071078207930724F06FEF7FEFCB0107C055
:102D700041916F5F7F4F8F4F9F4F4111F0CF1F9158
:102D80000F910895A6E0B0E0E8ECF6E10C941F3353
:102D9000182F9C831B0169017A010E94130E8B83FB
:102DA00040E150E060E070E0812F9C81D0DF4B017A
:102DB0005C0141E050E060E070E0C101C8DF2B0140
:102DC0003C012FEF82169206A206B20609F45DC0FE
:102DD0004FEF441654066406740609F456C053E0D7
:102DE000C516D104E104F10408F04FC080918E04AF
:102DF00090918F04A0919004B0919104843091053A
:102E0000A105B1050CF041C019831C811A8325E18D
:102E1000289FA001299F500D11245E834D8330E02F
:102E200020E040E050E0BA01481559056A057B05ED
:102E3000A4F114141504160417045CF4F1012081A4
:102E400035E1389FF001399FF00D1124EE56FB4F0C
:102E5000208B25E1289FF001299FF00D1124EE56CB
:102E6000FB4FC18AD28AE38AF48A0196A11DB11D63
:102E700080938E0490938F04A0939004B093910458
:102E80008B810E94160E81E004C08B810E94160E79
:102E90008FEF2696E2E10C943B33E981FA810191B0
:102EA000FA83E983ED81FE81E20FF31FEE56FB4FBB
:102EB00000834F5F5F4F6F4F7F4F2F5F3F4FB4CF08
:102EC0004F925F926F927F92AF92BF92CF92DF92BA
:102ED000EF92FF920F931F93CF93DF93CDB7DEB79F
:102EE000A0970FB6F894DEBF0FBECDBF86E0EEE42C
:102EF000F1E0DE015B9601900D928A95E1F7109268
:102F00008E0410928F0410929004109291048BE41E
:102F100091E0B5DDF12CE12C88E4A82E81E0B82EFB
:102F2000DE015B968E010F5F1F4F412C512C320149
:102F3000680103C08F012A013B018D91F801819343
:102F4000B301A2014F5F5F4F6F4F7F4F8111F2CFEF
:102F50004AE050E0B70168527F4FCE0141960E948F
:102F6000FE34FE017196BFEF4B1A5B0A6B0A7B0AB7
:102F700080E1481651046104710474F183E791E023
:102F8000A0E14A1651046104710489F178DDB9E2C7
:102F9000EB0EF11C8BE7E816F10411F62FEF3FEF73
:102FA000A90161E372E08EE491E0ECDE81E0A0969D
:102FB0000FB6F894DEBF0FBECDBFDF91CF911F914A
:102FC0000F91FF90EF90DF90CF90BF90AF907F90E8
:102FD0006F905F904F90089581919FEB980F9A3179
:102FE00008F4805ED8018D938D018111BCCFDF92F2
:102FF000CF92BF92AF920E94050FF701E053FF4FAF
:10300000259135914591559161E372E0C601BADE93
:103010000F900F900F900F908F3F09F0B8CF89E974
:1030200091E0B4CFB0E0A0E0E8E1F8E10C94213306
:1030300080908E0490908F04A0909004B0909104A2
:1030400022E934E0C12CD12C7601C814D904EA0459
:10305000FB0424F06FEF7FEFCB0165C089010259BB
:103060001440C82FD92FF901412C512C3201DE0117
:10307000419141112EC05B0140E150E060E070E001
:1030800066DE962E0E551B4F40E150E060E070E08A
:10309000C8015DDEAB01BC01892D092C000C990B28
:1030A000AA0BBB0B84199509A609B7092A013B0194
:1030B00021E0421A510861087108480E591E6A1E23
:1030C0007B1EE1E14E165104610471041CF64501BA
:1030D00010C021965C91541333C04FEF441A540A28
:1030E000640A740AC4CFF80121918F01F40121937D
:1030F0004F01415051096109710914161506160650
:1031000017068CF3181619061A061B068CF085E1B3
:103110008C9DF0018D9DF00D1124EE56FB4F6189C1
:10312000728983899489CDB7DEB7E0E10C943D3391
:103130002991F40121934F010197A109B109E2CF2F
:10314000FFEFCF1ADF0AEF0AFF0A2B5E3F4F7DCF5A
:10315000CF92DF92EF92FF92FB01C12CD12C76012E
:10316000C216D306E406F50634F08FEFFF90EF9019
:10317000DF90CF9008956191DC016D93CD016623BE
:1031800031F0BFEFCB1ADB0AEB0AFB0AE9CF81E093
:10319000EDCFA0E1B0E0EFECF8E10C9425338B012A
:1031A00049015A0120E130E040E050E0BC01CE018D
:1031B0000196CEDF8F3F51F58FEF6096ECE00C94D7
:1031C000413320E130E040E050E0B801CE0101960B
:1031D000BFDF8FEFC81AD80AE80AF80A80918E0478
:1031E00090918F04A0919004B0919104C816D906D3
:1031F000EA06FB060CF7B801CE01019613DF68154D
:1032000079058A059B05E9F2862FD7CFC12CD12CF1
:103210007601E4CFA0E1B0E0E0E1F9E10C942D33D8
:10322000FC01CB018A012591359145915591BE0153
:103230006F5F7F4FAEDF682F880F770B880B990B7E
:103240006F3F2FEF72078207920751F09801AE018E
:103250004F5F5F4F0E94970F6096E4E00C944933F4
:103260008FEFFACF0F931F93CF930496FC018591B4
:103270009591A591B5914350510961097109483063
:1032800051056105710508F06BC0FA01E65BF64E69
:103290000C940F3352196E197A198419B0198E19BA
:1032A0009B19A61920E5289F8001299F100D112444
:1032B0000A511B4FD80194968D919C911CDBD8012B
:1032C0001296ED91FC911397C08194968D919C91EB
:1032D000E6D98C2FCF911F910F91089520E5289F5B
:1032E000F001299FF00D1124EA51FB4F82E581AFD7
:1032F000C1E0EFCF20E5289FF001299FF00D1124B8
:10330000EA51FB4F83E4F3CF20E5289FF001299F8A
:10331000F00D1124EA51FB4F8BE4E9CF20E5289F03
:10332000F001299FF00D1124EA51FB4F84A195A1D2
:10333000B4D8C82FCECF20E5289FF001299FF00DEB
:103340001124EA51FB4F81E082AFD2CF20E5289FC4
:10335000F001299FF00D1124EA51FB4F12AEC8CFA6
:10336000CFEFB7CFB0E0A0E0E8EBF9E10C94293360
:103370000496FC01C590D590E590F59080E58C9D74
:10338000E0018D9DD00D11248E010A511B4FD801F3
:1033900094968D919C91AFDAD801ED91FC911197A3
:1033A0009F012F5F3F4F11963C932E938081AE017A
:1033B000465F5A4F2417350720F0C651DB4FCD9397
:1033C000DC9390E59C9DF0019D9DF00D1124EA5148
:1033D000FB4F91AD933461F4DF01AE5BBF4F9C9125
:1033E000992331F0ED5BFF4F9081981301C08EEF70
:1033F000CDB7DEB7E8E00C944533CF93C82F8A30C1
:1034000011F08D3071F4FB0185AD882351F08DE012
:1034100090E00E943F078AE090E00E943F07CF9132
:10342000089580EE8C0F8F3570F0FB0184AD8823FA
:1034300051F08EE590E00E943F0780E48C0F082E4B
:10344000000C990BEACF8C2FCC0F990BE6CFEF92A3
:10345000FF921F93CF93DF93EC01142F8CA19DA1BA
:103460001CD899AD9235C1F480320CF0F5C0EA81D8
:10347000FB81CF0101969B838A8310832A813B8144
:10348000CE0184962817390718F080979B838A838A
:103490008CA19DA104D9E0C01D3019F42EAD2111DD
:1034A0001AE0FE01E55BFF4F10829B3409F5803284
:1034B0003CF0C15BDF4F8881082E000C990B40C0A7
:1034C000EA81FB81CF0101969B838A8310832A8145
:1034D0003B81CE0184962817390718F080979B838B
:1034E0008A838AAD8823A1F2BE01812F86DFD0CFE7
:1034F000FE01EB5BFF4F80819E012A5B3F4F79010C
:10350000811323C0319780818823F9F08A819B81C0
:10351000F90120813181821B930B9E012C5F3F4F6B
:103520008217930780F09B838A83F70110821182B0
:10353000128213828DE090E00E943F078AE090E0C3
:103540000E943F0789C08096EECFFE01E05CFF4FEE
:103550008081811721F031968081811351C08FAD18
:10356000882309F44DC0F70180819181A281B38144
:10357000181619061A061B060CF06EC00197A10951
:10358000B10980839183A283B3838A819B819C014B
:1035900021503109AE014C5F5F4F2417350760F1B0
:1035A0003B832A838AAD882309F456C0EA81FB81D4
:1035B000808180528F3590F08CAD882379F088E03F
:1035C00090E00E943F078BAD882341F080E290E0BD
:1035D0000E943F0788E090E00E943F0788E090E06B
:1035E0000E943F078BAD8823B9F180E290E00E94F2
:1035F0003F0788E090E0A4CF4F969B838A83D2CF89
:103600001A3011F01D3071F58AAD882319F0BE0112
:10361000812FF3DEEA81FB81CF0101969B838A83B0
:1036200010832A813B81CE0184962817390718F030
:1036300080979B838A83F7014081518162817381E6
:103640004F5F5F4F6F4F7F4F8CA19DA15BD8F701FC
:103650001082118212821382DF91CF911F91FF900D
:10366000EF9008958CA19DA10E944D12082E000C90
:10367000990BAA0BBB0BB7FF03C080E090E0DC0105
:10368000F7014081518162817381840F951FA61FCC
:10369000B71F4F97A105B1050CF00BCF8AADFE0106
:1036A000ED5BFF4F908191131AC031979081992360
:1036B000B1F0882319F0BE01812F9FDEF7018081D0
:1036C0009181A281B381892B8A2B8B2B29F6EA81E8
:1036D000FB81CF0101969B838A831083D9CE8823F7
:1036E00019F0BE01812F89DEF70180819181A281CD
:1036F000B3810196A11DB11D80839183A283B38301
:10370000EA81FB81CF0101969B838A8310832A8102
:103710003B81CE0184962817390708F49DCF809706
:103720009B838A8399CFCF92DF92EF92FF92CF93C0
:10373000DF93FC01E55BFF4F2081211134C0EC01D8
:103740002CA93DA98EA99FA92817390731F12CA9C9
:103750003DA98EA99FA92817390761F5C12CD12C45
:103760007601C3948AA99BA90E944D1228E030E0FB
:10377000281B310987FD3395CA94CD28CE28CF2840
:1037800099F12CA93DA98EA99FA92817390759F4A9
:103790008AA99BA90E944D1206C08AA99BA90E94D2
:1037A0004D128830A4F2DF91CF91FF90EF90DF901F
:1037B000CF900895EEA1FFA1CF0101969FA38EA304
:1037C0008081082E000C990B0E943F072CA93DA96F
:1037D000CE01C9962817390718F001979DAB8CAB1D
:1037E000C12CD12C7601BECF1216130654F6EEA1D1
:1037F000FFA1CF0101969FA38EA38081082E000C0C
:10380000990B0E943F072EA13FA1CE01C296281717
:10381000390718F008979FA38EA341E050E060E0BD
:1038200070E08AA99BA90E948213ABCFE4EDF0E07F
:103830006591759150E5569FC001579F900D1124D9
:103840008A519B4F70E060E0232B09F06CCFFFCDD5
:103850000F931F93CF93DF930496FC01859195916D
:10386000A591B59120E5289F8001299F100D112475
:10387000C80186519B4FE801CA51DB4F9B838A8365
:103880009983888360E070E0CB010E9468129DA359
:103890008CA3C801805F9A4F99A788A79FA38EA386
:1038A00068E070E080E090E00E9468129BAB8AAB19
:1038B000025E1A4F1FAB0EAB1DAB0CAB83E489AF9E
:1038C00081E08AAF8BAF8CAF8DAF8EAF8FAFFE0133
:1038D000E05CFF4F98E0908331969FE790833196AC
:1038E0008083319694E0908331968083319695E180
:1038F00090833196108211821282138234968083D3
:1039000031961082319693E19083319691E19083C4
:1039100031968083C15BDF4F87E0888381E0DF9150
:10392000CF911F910F910895F89421E030E048E580
:1039300061E070E080E090E079DF789408958F9204
:103940009F92AF92BF92DF92EF92FF920F931F93DD
:10395000CF93DF93EC01D62EFC01349685909590A1
:10396000A590B5908AE068130EC080E5889DF001AF
:10397000899DF00D1124EC5CFA4F8081882319F0A9
:103980006DE0CE01DCDF80E5889D7001899DF00C43
:10399000112487010A511B4FD801D2968D919C9119
:1039A0000E947B14D8019896ED91FC919997CF01D4
:1039B000019699969C938E939897D082C701885EC2
:1039C0009A4F98962D913C9199972817390738F07E
:1039D000C701805F9A4F99969C938E939897FE01AA
:1039E000B49685919591A0DF81E0DF91CF911F91F1
:1039F0000F91FF90EF90DF90BF90AF909F908F90CE
:103A00000895B0E0A0E0E7E0FDE10C9425338C01DF
:103A10007B0149015A018FEFB7FC35C0F80134969C
:103A200085919591A591B59120E5289FF001299F59
:103A3000F00D1124EA51FB4F81AD833491F18114D3
:103A40009104A104B10479F484A195A10E944D12BE
:103A5000882E880F9908AA08BB0880E08114910479
:103A6000A104B10481F0E701C12CD12C7601C81466
:103A7000D904EA04FB0464F0D501C401B7FF03C014
:103A800080E090E0DC01CDB7DEB7ECE00C94413390
:103A9000C80168DC89938FEFC81AD80AE80AF80AC7
:103AA000E6CFC8015FDC8E3FD1F0E7018993C12CDE
:103AB000D12C7601C394C814D904EA04FB0414F091
:103AC0008C2DE1CF8A30E1F38D30D1F3C8014ADC8F
:103AD00089939FEFC91AD90AE90AF90AECCF8EEF48
:103AE000D2CFB0E0A0E0E7E7FDE10C9429338C01F0
:103AF00069017A018FEFF7FC07C0EB01C114D10413
:103B0000E104F10431F481E0CDB7DEB7E8E00C94D4
:103B100045336991C80113DF81E0C81AD108E10873
:103B2000F108B9F7F0CF4F925F926F927F92AF9208
:103B3000BF92CF92DF92EF92FF920F931F93CF939A
:103B4000DF9300D000D0CDB7DEB769837A838B8353
:103B50009C8329013A010E94130E141415041604C3
:103B6000170414F4F7FE16C00E94160E8FEF0F9084
:103B70000F900F900F90DF91CF911F910F91FF90B9
:103B8000EF90DF90CF90BF90AF907F906F905F905D
:103B90004F900895D8019BE529813A81929FF001C9
:103BA000939FF00D1124E754FD4F40E050E0BA011F
:103BB0000D911D912D913D910A0D1B1D01931193A6
:103BC0004F5F5F4F6F4F7F4F44165506660677066F
:103BD00079F79BE549815A81949F9001959F300D1B
:103BE0001124D901A357BD4F9B965C924E929A9790
:103BF000F2017696EE0FFF1FE20FF31FE357FD4F22
:103C0000118210825C964C925C975D961C920E9489
:103C1000160E81E0ACCFB0E0A0E0E1E1FEE10C9453
:103C20001F33FC01E6011701812C912C540140E067
:103C300050E0BA01B3E04B2E512C612C712C8081E5
:103C40008823D9F08A30C9F088E088169104A1044D
:103C5000B10449F46FEF7FEF8FEF9FEFCDB7DEB781
:103C6000E2E10C943B33DF0191919032E1F3993022
:103C7000D1F39A3011F0911108C0F80140835183BB
:103C800062837383B401C501E9CFF101419351937C
:103C9000619371931F01FD0131969C3301F19E33B5
:103CA00039F1963259F5188219821A821B82D9018C
:103CB000A40FB51F9C93DB01CA010196A11DB11D84
:103CC000D901A80FB91F4E5F5F4F6F4F7F4F1C92F6
:103CD0008FEF881A980AA80AB80A2496B0CFC12C88
:103CE000D12C7601C394C882D982EA82FB82DFCFCD
:103CF00082E0C82ED12CE12CF12CF5CF48825982DC
:103D00006A827B82973211F09232C1F46A017B01A0
:103D1000DF01119680819817F1F18A3009F49ACF6A
:103D2000882309F497CFF901EC0DFD1D80838FEFF7
:103D3000C81AD80AE80AF80AFD01EACFD901A40F87
:103D4000B51F9C936A017B018FEFC81AD80AE80A55
:103D5000F80ADF01FD018D918A3049F1882339F19C
:103D6000982F9D7F9C3309F475CF803201F1893003
:103D7000F1F08632E1F0873209F46CCF823209F437
:103D800069CFF901EC0DFD1D8083EFEFCE1ADE0A3D
:103D9000EE0AFE0ADFCFB701A6014F5F5F4F6F4FFC
:103DA0007F4FC20ED31EF6011082FD0191CFB701E5
:103DB000A6014F5F5F4F6F4F7F4FD901AC0DBD1D07
:103DC00086CFB0E0A0E0E7EEFEE10C9427338CE272
:103DD00092E09F938F9384E591E09F938F930E944D
:103DE00058160F900F900F900F90B12CA12C80E0DF
:103DF00090E0DC01C7E5D1E06C017D01EFEFCE1A68
:103E0000DE0AEE0AFE0A85010E5F1F4F409108018F
:103E10005091090160910A0170910B018417950777
:103E2000A607B70768F087E891E09F938F930E94F9
:103E300058160F900F90CDB7DEB7EAE00C944333DD
:103E4000C5018B569D4FFC01859195919F938F9352
:103E5000F501EF5DFA4F859195919F938F93DF93D5
:103E6000CF930E9458160F900F900F900F900F90C5
:103E70000F905801D701C601BFCFAFEBB0E0E3E42C
:103E8000FFE10C941F338FE591E00E945B159E01CA
:103E900025563F4FC555DF4F39832883CB5AD04035
:103EA000AE014D555F4FC355DF4F59834883CD5AFF
:103EB000D04000E5F02E85E691E09F938F931F920E
:103EC0001F920E942016E4EDF0E085919591A59156
:103ED000B591F89EF001F99EF00D1124CF018651A5
:103EE0009B4FEA51FB4F938382839183808340E011
:103EF00050E0BA0184A195A10E94B21201E210E043
:103F000020E030E0AE01465D5F4F60E070E0CB0145
:103F10000E947710482F880F550B660B770B0F9078
:103F20000F900F900F904E3FFFEF5F076F077F07D7
:103F300009F44EC242305105610571050CF4BBCF46
:103F4000EAE2F0E0EC0FFD1FE40FF51F8AE080834A
:103F50009E01255B3F4F6901CE0185599F4F7C0132
:103F60008E0109551F4F2A5431098154910953DE9E
:103F70001B012C019FEF291639064906590699F4B1
:103F8000A8E6B1E0BF93AF938AE491E09F938F934B
:103F90001F921F920E9420160F900F900F900F906B
:103FA0000F900F9086CF211431044104510409F47D
:103FB00080CFB201A1014150510961097109FA0193
:103FC000EE0FFF1FEE0FFF1F2BE430E02C0F3D1F05
:103FD000E20FF31F80819181A281B381892B8A2B0B
:103FE0008B2B09F018C1C955DF4F88819981AA81AF
:103FF000BB81C75AD0400297A109B109C955DF4F0B
:1040000088839983AA83BB83C75AD0401A012B01A6
:1040100031E0C554DF4F3883CB5BD04043E02416FA
:104020003104410451040CF415C1B201A101425004
:10403000510961097109FA01EE0FFF1FEE0FFF1F11
:10404000ABE4B0E0AC0FBD1FAE0FBF1F0D911D91D3
:104050002D913C91D901C8010197A109B10902979D
:10406000A105B10508F0DDC0D201C1010197A10988
:10407000B109880F991F880F991FABE4B0E0AC0F0E
:10408000BD1FA80FB91FCD90DD90ED90FC90A3E06F
:10409000CA16D104E104F10409F00BCFABE6B0E09D
:1040A000AC0FBD1F8A0F9B1FDC016D907C9081E0DF
:1040B00090E08C0F9D1F680E791EB12CA12C013051
:1040C00011052105310519F05301712C612CABE666
:1040D000B0E0AC0FBD1FEA0FFB1F80819181A28170
:1040E000B381C955DF4F88839983AA83BB83C75A9D
:1040F000D0401A012B0143305105610571050CF4C4
:1041000066C0B201A1014250510961097109FA0169
:10411000EE0FFF1FEE0FFF1FABE4B0E0AC0FBD1FB3
:10412000AE0FBF1F0D911D912D913C91D901C8017A
:104130000197A109B1090297A105B10508F047C08F
:10414000D201C1010197A109B109880F991F880FF8
:10415000991FABE4B0E0AC0FBD1FA80FB91FCD9005
:10416000DD90ED90FC90B3E0CB16D104E104F104B6
:1041700009F09FCE013011052105310509F056C027
:104180006114710409F095CE2BE630E02C0F3D1F31
:10419000820F931FDC016D907C9021E030E02C0FAA
:1041A0003D1F620E731E8BE690E08C0F9D1FE80F83
:1041B000F91F80819181A281B381C955DF4F888326
:1041C0009983AA83BB83C75AD0401A012B01FE01F1
:1041D000E55BFF4F80E090E0DC0182159305A405CC
:1041E000B505ECF1211431044104510409F461CE08
:1041F00001E215E0C0900801D0900901E0900A01A9
:10420000F0900B01C155DF4F188219821A821B8270
:10421000CF5AD0406CC0C554DF4F1882CB5BD04022
:10422000FDCE712C612CB12CA12C6BCFA114B1044B
:1042300009F03FCEABE6B0E0AC0FBD1F8A0F9B1F6D
:10424000DC01AD90BC9021E030E02C0F3D1FA20EB0
:10425000B31EA9CF712C612CB12CA12CB8CF4191E8
:10426000519161917191433051056105710509F0DA
:1042700020CE0196A11DB11DB0CFF8010590F4919B
:10428000E02DC754DF4FF983E883C95BD040CF01ED
:104290000E94E7344C01AC01C754DF4F688179813B
:1042A000C95BD040CE0101960E94F034892B49F4BD
:1042B000E1E0F0E0EC0FFD1FE80DF91D808188239F
:1042C00079F1C155DF4F288139814A815B81CF5A0D
:1042D000D0402F5F3F4F4F4F5F4FC155DF4F288377
:1042E00039834A835B83CF5AD0400E5F1F4FC1553D
:1042F000DF4F88819981AA81BB81CF5AD040C816EF
:10430000D906EA06FB0609F0B8CFA1E0B0E0AC0F91
:10431000BD1FBF93AF93E6E7F1E0FF93EF9338CE75
:10432000C155DF4F48815981CF5AD040440F551FA6
:10433000C954DF4F59834883C75BD040FA01C15548
:10434000DF4F88819981CF5AD040E80FF91FE15A99
:10435000FD4F8491882309F458C06114710409F059
:10436000A8CDA114B10409F0A4CDC554DF4F9881A4
:10437000CB5BD04091119DCD9E0125593F4F7E01D1
:10438000ABE8EA0EF11C80E090E0DC0187018215C9
:104390009305A405B5052CF1C954DF4FE881F981D7
:1043A000C75BD040C155DF4F28813981CF5AD040FB
:1043B000E20FF31FE05AFD4F0590F491E02DB80194
:1043C000C10109956D3F7F4F8F4F9F4F09F071CD10
:1043D00061E070E080E090E0C154DF4FE2E10C94D6
:1043E0003B33F90141915191619171919F01E1E05C
:1043F000F0E0EC0FFD1F4E0F5F1FF701419351934B
:104400007F010196A11DB11DC2CF6114710409F491
:10441000C6C021E831E0A30162E070E080E090E0F6
:104420000E94970F282F880F330B440B550BC45451
:10443000DF4F288339834A835B83CC5BD0402F3F97
:104440003F4F4F4F5F4F09F434CDA114B10409F42D
:10445000AFC024E831E0A50162E070E080E090E0C8
:104460000E94970F282F880F330B440B550BCD5408
:10447000DF4F288339834A835B83C35BD0402F3F60
:104480003F4F4F4F5F4F09F414CDA12CB12C650164
:10449000E12CF12C870122E030E040E050E0CD54E7
:1044A000DF4F688179818A819B81C35BD0400E9404
:1044B000AD08A401C754DF4F68817981C95BD04042
:1044C000CE0185569F4F0E94FE34EBE9F0E0EC0FE1
:1044D000FD1FE80DF91D1082C255DF4F9881CE5A9D
:1044E000D0409F93C355DF4FA881CD5AD040AF93A2
:1044F0005F924F923F922F921F9282E08F93C4550A
:10450000DF4FB881CC5AD040BF93C555DF4FE8810B
:10451000CB5AD040EF931F9284E18F93C954DF4F61
:10452000E881F981C75BD040E55CFD4F85919591AD
:104530009F938F93C954DF4FE881F981C75BD040C7
:10454000C155DF4F28813981CF5AD040E20FF31F88
:10455000E05AFD4F859195919F938F930E940B098F
:10456000C155DF4F688379838A839B83CF5AD040BC
:104570000FB6F894DEBF0FBECDBF6F3F7F4F8F4F9A
:104580009F4FF9F486E891E09F938F931F921F92BB
:104590000E9420160F900F900F900F908ACCC45459
:1045A000DF4F188219821A821B82CC5BD0404DCF1C
:1045B000CD54DF4F188219821A821B82C35BD04010
:1045C00078CFC955DF4FC880D980EA80FB80C75AB1
:1045D000D040FE01ED55FF4F4F019E012F5F3F4F31
:1045E00059018E0105591F4FA2019101C155DF4F9D
:1045F000688179818A819B81CF5AD04094DA8F3F3C
:1046000009F4C0CF2BE5C155DF4F48815981CF5AFE
:10461000D040249FC001259F900D112483579D4FAA
:10462000FC01EF5AFF4FC454DF4FA881B981CC5B26
:10463000D040B183A0838D5A9F4FCD54DF4F288146
:104640003981C35BD040FC01318320830E94181163
:10465000C155DF4F688179818A819B81CF5AD040D3
:104660000E941912C554DF4F3881CB5BD040311105
:1046700020CC0E94D910C155DF4F288139814A8151
:104680005B81CF5AD040621773078407950789F77B
:1046900010CCE0914C02F0914D022E2F9F2F819172
:1046A0008032D9F38930C9F320934C0290934D02A4
:1046B0000895CF93DF93EC0110923A0290E080E0EE
:1046C000FE0124912223F1F040914C0250914D02C1
:1046D000FA01E80FF91F2081FE013491231303C072
:1046E00001962196EDCF649130E020583F4F62173C
:1046F000130659F40196840F951F90934D028093F1
:104700004C02C7DFDF91CF910895FE01849121967D
:1047100087FFFBCF80913A028F5F80933A02B9DF27
:10472000CDCFB7DFE0914C02F0914D0290E080E0F8
:104730006AE03E2F2F2F419150ED540F5A3028F050
:1047400030934C0220934D020895893959E1950721
:1047500038F030934C0220934D028FEF9FEF089575
:10476000689F9001699F300D1124C901C097840F83
:10477000911DDFCF8091430290914402409141020C
:1047800050914202609138027091390248175907DE
:1047900051F0FC01208131812617370720F4228156
:1047A000820F911DF3CF0895E0914102F0914202F2
:1047B000329690E010C08917E1F3823281F087329F
:1047C00081F0911108C02FE9280F2A3120F4DF0170
:1047D000119780528C9381918A3069F7089592E203
:1047E000FACF97E2F8CFFF920F931F93CF93DF9307
:1047F000C1E0D0E04EDFE0914C02F0914D028081AB
:104800008D3249F43196F0934D02E0934C02D195EC
:10481000C195D109EFCF803341F43196F0934D0229
:10482000E0934C0290E080E07EC09FEC980F9930BE
:10483000B0F490E080E04AE0489F9001499F300D3D
:1048400011248191820F932F911DC09720812053B5
:104850002A3090F3F0934D02E0934C0264C09FEB3A
:10486000980F9A3108F03FC0918191549A3180F0AD
:1048700090E081549048880F991F20913F02309119
:104880004002820F931FDC018D919C913196E2CF03
:1048900087E396E00EDFF0903A02B5E0FB16C1F137
:1048A000E0914C02F0914D028081883289F5319679
:1048B000F0934D02E0934C02ADD08C01E0914C029C
:1048C000F0914D028081893219F53196F0934D02B5
:1048D000E0934C0221E0F216F9F0F21608F4A2CFB0
:1048E00034E0F31669F1E0914C02F0914D028081C1
:1048F000883271F43196F0934D02E0934C028AD0E5
:10490000E0914C02F0914D022081293209F4BECF92
:1049100081E08093470286CFC80117FF04C0882733
:104920009927801B910BDC01CA9FC001CB9F900D82
:10493000DA9F900D1124CDB7DEB7E5E00C94483333
:104940000E94CE33B8010E94E032EDCF1F93CF9387
:10495000DF9349DFEC019DDE11E0E0914C02F09124
:104960004D0280818A3279F43196F0934D02E093C2
:104970004C0239DF9E01289FE001299FD00D389F0E
:10498000D00D1124EACF8F3289F43196F0934D0285
:10499000E0934C0228DFBC01892B29F0CE010E9454
:1049A000E032EB01DACF10934702D7CFCE01DF918F
:1049B000CF911F910895CF93DF93E0914C02F09136
:1049C0004D0280818D32A1F08B3291F0BFDFEC017E
:1049D000E0914C02F0914D0280818D3261F431966C
:1049E000F0934D02E0934C02B1DFC81BD90BF0CF1E
:1049F000D0E0C0E0EDCF8B3249F43196F0934D0218
:104A0000E0934C02A3DFC80FD91FE2CFCE01DF91A4
:104A1000CF910895CF93DF93CEDFEC0180914702D1
:104A2000811126C083E296E044DEE0913A02E7304D
:104A3000F9F0E73008F03CC0F0E0EF5DFA4D0C947F
:104A40000F33282530253C2543254A25512530257F
:104A5000B2DF31E020E0C817D90744F430E006C0E7
:104A6000AADF31E020E0C817D907C1F3C32FD22F46
:104A7000CE01DF91CF9108959EDF31E020E08C17C9
:104A80009D07A4F3EBCF97DF31E020E0C817D907EB
:104A900029F7ECCF90DF31E020E08C179D0734F749
:104AA000DDCF89DF31E020E0C817D907FCF2D6CF8F
:104AB000D0E0C0E0DDCF282F082E000C330B3F9351
:104AC0008F938AE891E09F938F930E9458160F90DE
:104AD0000F900F900F9008950F931F93CF93DF9334
:104AE000EC0197FF05C0D195C195D1098DE2E3DFB7
:104AF000E0913B02F0913C0210E000E02AE030E05F
:104B0000CE01B9010E94E032805D8293EB010F5F1C
:104B10001F4F1C161D06A4F3F0933C02E0933B02CA
:104B2000E0913B02F0913C028191F0933C02E093D2
:104B30003B02C1DF0150110999F7DF91CF911F911D
:104B40000F910895CF93DF93EC01CE01FE012491E4
:104B5000211103C0DF91CF9108952196FC0184912A
:104B6000AADFF3CF8AE0A7DF8DE0A5CFEBDFFACF96
:104B7000E0914A02F0914B02808191813396F0934B
:104B80004B02E0934A02A8DF80E295DFE0914A02FF
:104B9000F0914B0280818A3031F43196F0934B02D0
:104BA000E0934A02DFCF87DF80914A0290914B0267
:104BB000019690934B0280934A02E8CF7CDF80E21B
:104BC0007ADF8091410290914202029690934D02C9
:104BD00080934C0260E070E0CB010E94330B082E02
:104BE000000C990B8A30910511F48DE090E08A3029
:104BF000C9F08D30B9F020914C0230914D028830CF
:104C0000C9F480914102909142022817390711F3AB
:104C10002150310930934D0220934C0287EA95E0F0
:104C200091DFD8CF9FDFE0914C02F0914D028AE0F6
:104C30008083089540913F025091400242505109B3
:104C40002417350719F488E036DFC4CFF9018193C2
:104C5000F0934D02E0934C02F7CFA4E0B1E0E3E320
:104C6000F6E20C941F33CE01019690934402809398
:104C7000430290934202809341024E018BEF881AC7
:104C80008EEF980A90923C0280923B02CE018951AD
:104C90009F4F909346028093450244979093400221
:104CA00080933F0280EE95E061DF80913F0290911A
:104CB00040022091410230914202821B930B0CDF93
:104CC00083ED95E053DF8DEB95E050DF2E01ACEFE7
:104CD0004A1AAEEF5A0AF6E42F2EA7E43A2E0EE552
:104CE00010923E0210923D0290923C0280923B0252
:104CF00080E296E03BDF08C0B0934202A0934102FD
:104D0000F0924D02E0924C028EE358DF4DDDC090F0
:104D10004102D09042027601B2E0EB0EF11CD701C5
:104D2000FD0131968C918A3009F090C0B0934D020C
:104D3000A0934C0280913F0290914002BF019C01E0
:104D4000FB014291BF01F90142939F01E616F7066C
:104D5000B9F797012A1B3B0B21503109820F931F92
:104D600090934D0280934C02DCDC5C0190933902FD
:104D7000809338028EDCA114B10409F480C0FFEFE7
:104D8000AF16BF0609F477C260904C0270904D02D6
:104D900010E0F301E10FF11D80818A3009F058C065
:104DA0001C5F730183E0E81AF108F0924D02E09273
:104DB0004C02D701AD92BC92F30131971083DADC3B
:104DC000FC01C816D90699F080819181A816B90610
:104DD00071F482819F01280F311DC81AD108AF01DB
:104DE0004C155D05B9F55093420240934102D30141
:104DF0008C91A0914102B09142028A3009F484CF93
:104E0000112309F479CF97012A1B3B0B812F90E0E6
:104E10002817390708F4C9019D01280F391FA90176
:104E20005D01CC24DD24CE1ADF0AB5016C0D7D1D99
:104E3000672BB9F4D701AF01480F591FE417F507E5
:104E4000B9F4E80EF91E181BD901DACFDF0168CFDB
:104E50001F5F9FCFD9018D919D01DA018D93AD0127
:104E6000BFCFD5016E915D01DA016E93AD01DDCF4B
:104E70006D916193E3CF8DE096E078DE31CFF092D3
:104E80004D02E0924C02F60182818A3009F43CCF57
:104E90008CE496E00EDC10913A021D3108F089C1D5
:104EA000E12FF0E0EA5AF84D0C940F33082AA92AB2
:104EB00073278427B12A1529A0299E27B127E52821
:104EC0002E29D9282228D327282ADF29C627BE2A17
:104ED000B12A9A2A282AD928B12AB12AB12AC62762
:104EE000B42AA92AA029E0914C02F0914D028081B8
:104EF0008A3009F0E6C08091430290914402909379
:104F000042028093410200CF80914302909144027B
:104F100090933E0280933D0280913D0290913E022B
:104F200020914102309142028217930709F4D8CEB2
:104F3000039690934D0280934C02AACF10924702A1
:104F400069DD20914702211196C1E0914C02F09158
:104F50004D0220812A3009F48EC1892B09F098CFA7
:104F600028C11092470256DD90933902809338028F
:104F70008091470281117FC1E0914C02F0914D0276
:104F800080818A3009F077C1F5DBC2CFE0914C0215
:104F9000F0914D0280818A3009F093C080914102E6
:104FA00090914202B5CF75DBE0914C02F0914D0239
:104FB00010818FEB810F8A3108F083C03196F09316
:104FC0004D02E0934C0265DBE0914C02F0914D0202
:104FD00080818A3019F08A3309F073C080914C02C5
:104FE00090914D0290934902809348028FE3E6DD51
:104FF000DBDB8091410290914202029690934D0238
:1050000080934C0246DB1092470204DD2091470258
:105010002111E4CF212F30E021543048220F331FDB
:1050200040913F0250914002240F351FD9018D93CA
:105030009C93809148029091490290934D028093F5
:105040004C02A1C026DBE0914C02F0914D02108190
:105050008FEB810F8A31A8F53196F0934D02E093E2
:105060004C0217DBE0914C02F0914D0280818D33B0
:1050700041F53196F0934D02E0934C020ADB109219
:105080004702C8DC6C018091470281111AC084E399
:1050900096E00FDB80913A02811113C0BBDC7C01EA
:1050A0008091470281110DC08FE296E002DB809172
:1050B0003A02811123C0AEDC5C0180914702882353
:1050C00001F189E196E03EDD80913D0290913E0242
:1050D000009791F0E0914C02F0914D0210811A304E
:1050E00009F0008390934B0280934A0241DDE091E6
:1050F0004C02F0914D02108335DD06CEAA24A39414
:10510000B12CC7DA40914C0250914D02FA018081D6
:105110008A3011F08A33A9F6909147029111ABC001
:105120008A3009F0A8C0E0913B02F0913C02CF0127
:105130000A9620914502309146028217930708F49F
:105140009ACE3A97F0933C02E0933B02812F90E095
:1051500081549048880F991F20913F02309140025E
:10516000820F931FDC01CD92DC9220821183F382A7
:10517000E282B582A4825187408780913D0290915E
:105180003E029783868380914C0290914D02FC01F0
:10519000019620812A33D9F3F0934D02E0934C021B
:1051A00078DAE0914C02F0914D0280818A3009F06A
:1051B0006FCEE0913D02F0913E02309709F4A4CD0C
:1051C00082818E0F9F2F911DA3CE1092470222DC69
:1051D00090933902809338028091470281114BC02D
:1051E000A0914C02B0914D028C918A3009F043C0DD
:1051F000E0913B02F0913C02CF01059620914502DF
:10520000309146028217930708F435CE3597F09314
:105210003C02E0933B023082B483A38380913D0241
:1052200090913E0292838183AFCE33DAE0914C02BB
:10523000F0914D02808181548A31E8F43196F093E7
:105240004D02E0934C0225DAE0914C02F0914D02C0
:1052500080818A3319F08A3009F033CF20913B02E4
:1052600030913C02A0914C02B0914D02F90111978E
:10527000E415F50518F084E196E03CCD8081863494
:10528000D1F0873409F02CCD1A3099F481819281C4
:1052900090933E0280933D028381948190934D02CE
:1052A00080934C022B5F3F4F30933C0220933B0294
:1052B0006ACF3596DDCF153009F040C08C9190E073
:1052C0004181042E000C550B84179507B9F58154C4
:1052D0009048880F991FA0913F02B0914002A80FFB
:1052E000B91F2D913C91119784819581280F391F09
:1052F0002D933C9384819581181619065CF4828164
:105300009381821793076CF43A96F0933C02E093F2
:105310003B0239CF892BC1F382819381281739074A
:105320009CF38085918590934D0280934C028681F9
:10533000978190933E0280933D0225CF3A9698CF75
:10534000E0914C02F0914D0280819FEB980F9A31D1
:1053500008F091CF90E081549048880F991FE09019
:105360003F02F0904002E80EF91E3196F0934D0294
:10537000E0934C028ED9E0914C02F0914D02808175
:105380008D3309F09ECE3196F0934D02E0934C029E
:1053900080D9109247023EDB9C0180914702811127
:1053A00090CEE0914C02F0914D0290819A3019F02C
:1053B0009A3309F086CEF70131832083E4CE109230
:1053C000470228DB8091470281117BCE62D9E091B0
:1053D0004C02F0914D0280818C3209F072CE3196F0
:1053E000F0934D02E0934C0254D91092470212DB25
:1053F00080914702811165CEE0914C02F0914D02FF
:1054000080818A3009F4CCCE8A3309F4BCCE59CEDF
:1054100088D99093390280933802E0914C02F09140
:105420004D0280818A3009F04CCEA4D990934B0272
:1054300080934A0220914A0230914B0280914102AE
:10544000909142022817390709F44ACC91DBF2CF38
:10545000E0914C02F0914D0280818A3339F482DB75
:1054600080914C0290914D020196E7CD8A3009F46B
:10547000A0CE0FD9E0914C02F0914D021081123272
:1054800011F0173219F53196F0934D02E0934C026A
:105490008191181319C0E0914C02F0914D02808166
:1054A000181328C03196F0934D02E0934C02E0911E
:1054B0004C02F0914D0280818C3239F53196F09397
:1054C0004D02E0934C02D5CF8A3011F7E0914C02A7
:1054D000F0914D028081823209F4F3CD873209F4D4
:1054E000F0CD1092470296DA209147022111E9CDC2
:1054F000F3DADDCFE0DA80914C0290914D02019613
:1055000090934D0280934C02C6CF8B3361F481811E
:105510008A3019F08A3309F0D4CD3196F0934D02D8
:10552000E0934C0230CE8A3019F08A3309F0C9CDAD
:1055300019DB29CE80913F029091400220914102D7
:1055400030914202821B930BC7DA83ED95E00EDBAC
:105550001ACE80914302909144029093420280932C
:1055600041028FEA95E0C6CB1092470253DA2091B0
:1055700047022111A6CD0E94D13305CECC5FDE4F6C
:10558000E2E10C943B33AF92BF92CF92DF92EF9265
:10559000FF920F931F93A12CB12C6501E12CF12CEC
:1055A000870124E030E040E050E060E070E0CB01B3
:1055B0000E94AD0852DB25E030E040E050E060E0C2
:1055C00070E0CB010E94AD0880E01F910F91FF9029
:1055D000EF90DF90CF90BF90AF90089550E040E003
:1055E000EAE0DC012D91CD01022E000C330B2115D8
:1055F000310511F4CA010895B901605371096A3087
:10560000710558F4E49FB001E59F700D1124260F39
:10561000371FA90140535109E4CF50E040E0EACFE1
:10562000FC019C012D5F3F4F37FF02C02D5F3F4FB4
:105630003595279535952795BF016C5F7F4F260FD0
:10564000371FE93087E0F8079CF0CF01855A964074
:105650006CE97FEFB5D7260F371FCF0181549640F5
:1056600060E971E0ADD7260F371F2D5F3F4F03C0B4
:10567000E93DF640D4F7C90167E070E0A1C7EF92B9
:10568000FF920F931F93CF93DF937C01C1E0D0E093
:1056900004EF11E0CE15DF0524F0CDB7DEB7E6E06C
:1056A000F6C71F930F930E94581621960F900F90E4
:1056B000F1CFB0E0A0E0EEE5FBE2C4C74C018B0106
:1056C000CB01AEDFEC018DE180930E018EE1809382
:1056D0001501C8010196A4DF07968C1B9D0B67E09E
:1056E00070E06ED78130910531F0029739F083E197
:1056F0008093150103C08CE180930E01ECE0F1E092
:105700003196CF018C50914088159905BCF1CE019E
:1057100067E070E055D78C01880F991F800F911FAB
:105720000196ADDFC1E0D0E0C401845F9E4F4C0123
:1057300034EFE32E31E0F32E4AE0A42EB12C5AE8E8
:10574000C52E51E0D52E6EE1562E70E3672E72E025
:10575000772EF4018081282F082E000C330B2C1794
:105760003D0794F480E392E09F938F930E94581634
:105770000F900F90CDB7DEB7EFE080C78081C80FE4
:10578000D11D87FDDA95BCCFC330D105C1F583317A
:10579000C9F5F4015082CEE0D0E0CE01B50110D7BA
:1057A000605D7F4F7F936F93DF92CF920E94581678
:1057B0000F900F900F900F90CE01B50101D7C096BA
:1057C0009F938F93DF92CF920E945816FF92EF9291
:1057D0000E9458160F5F1F4F0F900F900F900F9061
:1057E0000F900F900730110541F47F926F920E9445
:1057F00058160F900F9010E000E02196AACFCA3003
:10580000D1055CF6FF92EF920E9458160F900F9010
:10581000D3CFB0E0A0E0EEE0FCE217C77B0182301E
:1058200091050CF050C090E080E00E944F0AF70113
:1058300082819381D3DE6C01EC012197CC30D105BC
:1058400008F096C0F70184819581C8DE8C0101972C
:105850008F30974208F08CC0FE01EE0FFF1FE65418
:10586000F94F859195919F938F938DE891E09F9348
:105870008F930E9458161F930F9385E991E09F9391
:105880008F930E94581682E097E09F938F938BE549
:1058900091E09F938F930E945816B801C60109DFCB
:1058A00080E392E09F938F930E94581690E080E0EF
:1058B0000E944F0A8DB79EB70E960FB6F8949EBF02
:1058C0000FBE8DBF03C0029709F0B1CFF7018281EF
:1058D000938184DEEC0101978F30974208F048C035
:1058E00088248394912C2DE8A22E21E0B22E35E954
:1058F000C32E31E0D32E42E0E42E47E0F42E0BE538
:1059000011E0F401EE0FFF1FE854F94F85919591D6
:105910009F938F93BF92AF920E945816DF93CF93BD
:10592000DF92CF920E945816FF92EF921F930F932F
:105930000E945816BE01C401BCDE9FEF891A990A65
:10594000EDB7FEB73C960FB6F894FEBF0FBEEDBFA5
:10595000FDE08F169104A9F680E392E09F938F9368
:105960000E94581690E080E00E944F0A0F900F901E
:1059700089E991E09F938F930E9458160F900F90A2
:10598000CDB7DEB7ECE07DC687EA91E09F938F93B9
:105990001F921F920E9420168CEA91E09F938F9392
:1059A0001F921F920E9420168DB79EB708960FB6C1
:1059B000F8949EBF0FBE8DBF80E00895A0E5B0E0D3
:1059C000E3EEFCE24AC6FB0181309105B9F48E0199
:1059D0000F5F1F4FC8010E9483151F930F9380EB29
:1059E00091E09F938F930E9458160F900F900F9005
:1059F0000F9080E0C05BDF4FE4E04BC6039739F4C3
:105A000064817581828193810E94B215F2CF8FEFFC
:105A1000F1CFB0E0A0E0EEE0FDE217C64C01EB01F3
:105A200082E088169104FCF08B818F938A818F939A
:105A300087EB91E09F938F930E94581624960F90C6
:105A40000F900F900F9082E0C82ED12CE12CF12CFA
:105A5000092C000CAA08BB0806EB11E0C814D904F5
:105A6000EA04FB046CF080E392E09F938F930E9422
:105A700058160F900F9080E0CDB7DEB7ECE001C66E
:105A80008881998122969F938F931F930F930E94F1
:105A900058168FEFC81AD80AE80AF80A0F900F9024
:105AA0000F900F90DBCF87EA91E09F938F931F9227
:105AB0001F920E9420168CEA91E09F938F931F9271
:105AC0001F920E9420168DB79EB708960FB6F894C5
:105AD0009EBF0FBE8DBF0895B0E0A0E0E1E7FDE2FC
